:020000040800F2
:1000000000000120050300080B030008130300088B
:10001000370300083F0300086303000800000000E6
:10002000000000000000000000000000870300083E
:100030008F03000800000000970300089F030008DA
:10004000BD030008BD030008BD030008BD03000890
:10005000BD030008BD030008BD030008BD03000880
:10006000BD030008BD030008BD030008BD03000870
:10007000BD030008BD030008BD030008BD03000860
:10008000BD030008BD030008BD0300080000000018
:10009000000000000000000000000000BD03000898
:1000A000BD030008BD030008BD030008BD03000830
:1000B000BD030008BD030008BD030008BD03000820
:1000C000BD030008BD030008BD030008BD03000810
:1000D000BD030008BD030008BD03000800000000C8
:1000E000BD030008BD030008BD03000800000000B8
:1000F000000000000000000000000000BD03000838
:1001000000000000BD030008BD030008BD03000897
:1001100000000000000000000000000000000000DF
:10012000BD030008BD030008BD030008BD030008AF
:10013000BD030008000000000000000000000000F7
:10014000000000000000000000000000BD030008E7
:10015000BD030008BD030008BD030008BD0300087F
:10016000BD030008BD0300080000000000000000FF
:10017000000000000000000000000000000000007F
:1001800000000000BD0300080000000000000000A7
:10019000BD03000880B596B000AF00F03FF94F4BAB
:1001A0007B6524E07B6D1A1D7A651B683B647B6D63
:1001B0001A1D7A651B68FB637B6D1A1D7A651B68C7
:1001C000BB633B6C7B63FB6B3B63BB6BFB623B6B5F
:1001D000BB6207E07A6B131D7B63BB6A191DB962B2
:1001E00012681A60FA6ABB6A9A42F3D800BF7B6D44
:1001F0003B4A9342D6D33B4B3B651AE03B6D1A1DFD
:100200003A651B68BB643B6D1A1D3A651B687B64CD
:10021000BB6C7B627B6C3B627B6AFB6104E0FB69CD
:100220001A1DFA6100221A603A6AFB699A42F6D8EE
:1002300000BF3B6D2C4A9342E0D300F0FDF83A1D1D
:1002400007F108031146184600F0D6F8274A284B54
:10025000D31A9B103B610023FB6007E0244AFB6834
:1002600052F823309847FB680133FB603A69FB681A
:100270009A42F3DC1F4A204BD31A9B103B610023A8
:10028000FB6007E01C4AFB6852F823309847FB6884
:100290000133FB603A69FB689A42F3DC00BFBB683C
:1002A0007A681146184600F089FAF864134A144B2C
:1002B000D31A9B10BB61BB697B6108E07B69013B82
:1002C0000F4A52F8233098477B69013B7B617B6979
:1002D000002BF3DC00BFF86C00F088F8C4030008C2
:1002E000DC030008DC030008EC030008EC03000852
:1002F000EC030008EC030008EC030008EC03000822
:10030000EC0300082948004700BF80B400AF00BFDD
:10031000FDE71EF0040F0CBFEFF30880EFF3098038
:100320007146234A104700BF80B483B000AF7860A5
:10033000396000BFFDE780B400AF00BFFDE71EF0ED
:10034000040F0CBFEFF30880EFF309807146194AE0
:10035000104700BF80B483B000AF7860396000BF41
:10036000FDE71EF0040F0CBFEFF30880EFF30980E8
:100370007146114A104700BF80B483B000AF786067
:10038000396000BFFDE780B400AF00BFFDE780B477
:1003900000AF00BFFDE780B400AF00BFFDE780B451
:1003A00000AF00BFBD4680BC70470000950100084B
:1003B00029030008550300087903000880B400AF42
:0403C00000BFFDE796
:1003C400B00B0008000000201C000020B00B000847
:1003D40000000010000000101C000020200000207D
:0803E4000000001000000010F1
:1003EC0080B582B000AF786000F03CF880B483B088
:1003FC0000AF786039607B6801221A603B68034A61
:10040C001A6000BF0C37BD4680BC7047000000204E
:10041C0080B500AF00F02AF8024B034A9A6000BF87
:10042C0080BD00BF00ED00E00000000880B500AF0B
:10043C0000F028F800BF80BD80B400AFBFF34F8F31
:10044C0000BF064BDB6803F4E0620449044B134322
:10045C00CB60BFF34F8F00BF00BFFDE700ED00E0A6
:10046C000400FA0580B500AFFFF7E6FF80B400AFDB
:10047C00034B4FF000629A6000BFBD4680BC7047D2
:10048C0000ED00E080B487B000AF00233B61002397
:10049C007B610223FB600023BB6002237B60344B37
:1004AC009B6803F00C033B613B69082B11D03B6943
:1004BC00082B44D83B69002B03D03B69042B04D098
:1004CC003DE02C4B2C4A1A603DE02A4B2B4A1A601B
:1004DC0039E0274B5B689B0D03F00103BB60244B99
:1004EC005B6803F03F037B60BB68002B0CD0234A96
:1004FC007B68B2FBF3F31E4A52689209C2F30802FE
:10050C0002FB03F37B610BE01B4A7B68B2FBF3F34A
:10051C00174A52689209C2F3080202FB03F37B618B
:10052C00134B5B681B0C03F0030301335B00FB6094
:10053C007A69FB68B2FBF3F30E4A136003E00D4BD0
:10054C000D4A1A6000BF0A4B9B681B0903F00F038E
:10055C000B4AD35C3B61074B1A683B6922FA03F3E5
:10056C00044A136000BF1C37BD4680BC704700BFF7
:10057C0000380240080000200024F40000127A0029
:10058C00940B000890B486B000AF044608461146A0
:10059C001A462346FB710346BB710B467B7113460F
:1005AC003B71FB79413BFB75FB7D264A52F82330AE
:1005BC003B613B7903F00103FB733B795B08BB7335
:1005CC003B691B68BA795200032101FA02F2D2434B
:1005DC001A403B691A603B691B687979BA795200F9
:1005EC0001FA02F21A433B691A603B695B68BA79FB
:1005FC00012101FA02F2D2431A403B695A603B696D
:10060C005B68F97BBA7901FA02F21A433B695A60CA
:10061C003B69DB68BA795200032101FA02F2D2433A
:10062C001A403B69DA603B69DB68B97BBA795200E6
:10063C0001FA02F21A433B69DA6000BF1837BD4673
:10064C0090BC70470C00002080B485B000AF03460E
:10065C00FB710B46BB7113467B71FB79413BFB7302
:10066C00FB7B0E4A52F82330BB60BB685B69BA79DE
:10067C00012101FA02F2D2431A40BB685A61BB68ED
:10068C005B697979BA7901FA02F21A43BB685A614B
:10069C0000BF1437BD4680BC704700BF0C00002063
:1006AC0080B485B000AF03460A46FB711346BB719C
:1006BC000023FB73FB79413BBB73BB7B0A4A52F8AB
:1006CC002330BB60BB681B69BA79012101FA02F2C5
:1006DC001A40BB7922FA03F3FB73FB7B18461437E1
:1006EC00BD4680BC704700BF0C00002080B400AF3A
:1006FC00044B1B68034A43F00103136000BFBD4663
:10070C0080BC70470038024080B485B000AF03460F
:10071C00FB71FB795B09FB73FB7903F01F03BB7364
:10072C00FB7B032B36D801A252F823F049070008B3
:10073C005F070008750700088B070008184B1B683B
:10074C00BA7B012101FA02F21146154A0B431360E0
:10075C0021E0144B1B68BA7B012101FA02F211460D
:10076C00104A0B43136016E00F4B1B68BA7B012138
:10077C0001FA02F211460C4A0B4313600BE00B4BCF
:10078C001B68BA7B012101FA02F21146074A0B439E
:10079C00136000E000BF00BF1437BD4680BC70473B
:1007AC00303802403438024040380240443802406D
:1007BC0080B588B000AFFFF799FF0020FFF7A4FFCA
:1007CC0000F092F90223002200214120FFF7DAFE0B
:1007DC000223002201214120FFF7D4FEC14A3B1D18
:1007EC0007CA83E807000023FB610023FB611AE0C2
:1007FC00FB699B0020333B4453F81C3CD9B20023CB
:10080C0001224220FFF7BEFEFB699B0020333B44D4
:10081C0053F81C3CDBB2002219464220FFF714FFB0
:10082C00FB690133FB61FB69022BE1DD0123FB76E4
:10083C000123BB7600237B7600233B760023FB75DC
:10084C000023BB7500237B7500233B6100214120F5
:10085C00FFF726FF0346002B37D1BB7D002B34D18D
:10086C000123BB75BB7E012B17D10023BB76012363
:10087C007B76012200214220FFF7E6FE01220121B6
:10088C004220FFF7E1FE012202214220FFF7DCFEAD
:10089C0042F6F82000F03CF920E000220021422032
:1008AC00FFF7D2FE0123BB76012201214220FFF784
:1008BC00CBFE42F6F82000F02BF900220221422058
:1008CC00FFF7C2FE0123FB7508E000214120FFF772
:1008DC00E7FE0346002B01D00023BB75012141200C
:1008EC00FFF7DEFE0346002B26D17B7D002B23D0A9
:1008FC00BB7E002B29D1FB7E012B07D10023FB767D
:10090C00012202214220FFF79FFE1EE00123FB760D
:10091C00002200214220FFF797FE002201214220F5
:10092C00FFF792FE012202214220FFF78DFE42F6D4
:10093C00F82000F0EDF808E001214120FFF7B0FEAF
:10094C000346002B01D000237B75BB7E012B35D1D8
:10095C00FB7D002B32D000F003F90346B3F5FA7F90
:10096C000BD900F0FDF80346B3F57A7F05D20022CF
:10097C0001214220FFF768FE20E000F0F1F8034669
:10098C00B3F57A7F0CD900F0EBF8034640F2DB525A
:10099C00934205D8012201214220FFF755FE0DE0BC
:1009AC0000F0DEF8034640F2DC52934206D90022F6
:1009BC0001214220FFF748FE0023FB75BB7E002B74
:1009CC000DD1FB7E012B0AD100F0CAF80346B3F51A
:1009DC007A7F04D9002202214220FFF735FEBB7E2C
:1009EC00002B1AD17B7E002B17D000F0B9F80346F0
:1009FC00B3F5FA7F04D9002201214220FFF724FE2F
:100A0C0000F0AEF80346B3F5FA6F06D900220221C6
:100A1C004220FFF719FE00237B76FB7E012B20D1B1
:100A2C00BB7E002B1DD100F09BF8034642F21072E6
:100A3C00934216D90123BB76002200214220FFF7F6
:100A4C0003FE42F6F82000F063F800220221422057
:100A5C00FFF7FAFD012201214220FFF7F5FD0123EA
:100A6C003B76BB7E012B7FF4F1AEFB7E012B7FF43A
:100A7C00EDAE3B7E002B3FF4E9AE00F071F803467F
:100A8C00B3F5FA7F0BD900F06BF80346B3F57A7F18
:100A9C0005D2002201214220FFF7D6FD21E000F013
:100AAC005FF80346B3F57A7F0CD900F059F803468A
:100ABC0040F2DB52934205D8012201214220FFF77C
:100ACC00C3FD0EE000F04CF8034640F2DC529342BA
:100ADC007FF6BCAE002201214220FFF7B5FD0023BA
:100AEC003B76B3E6A40B000880B400AF074B1B6841
:100AFC00064A43F0010313604FF0804343F67F62D4
:100B0C009A6200BFBD4680BC704700BF40380240AF
:100B1C0080B483B000AF7860104B01221A704FF094
:100B2C00804300225A624FF080427B68D3624FF0C0
:100B3C0080431B684FF0804243F00103136000BFF9
:100B4C004FF080431B6903F00103002BF8D000BF6A
:100B5C0000BF0C37BD4680BC704700BF1D00002095
:100B6C0080B400AF4FF080431B6903F00103002BEE
:100B7C0002D04FF0FF3302E04FF080435B6A18461F
:100B8C00BD4680BC70470000000000000000000063
:100B9C000102030406070809000000000100000020
:040BAC000200000043
:100BB0001C000020000000000024F400000002409F
:0C0BC0000004024000080240000C02404B
:040000050800019559
:00000001FF
